{
  "_format": "hh-sol-artifact-1",
  "contractName": "Auction",
  "sourceName": "contracts/Auction.sol",
  "abi": [
    {
      "anonymous": false,
      "inputs": [
        {
          "indexed": true,
          "internalType": "address",
          "name": "bidder",
          "type": "address"
        },
        {
          "indexed": true,
          "internalType": "uint256",
          "name": "listingId",
          "type": "uint256"
        },
        {
          "indexed": false,
          "internalType": "uint256",
          "name": "amount",
          "type": "uint256"
        },
        {
          "indexed": false,
          "internalType": "uint256",
          "name": "timestamp",
          "type": "uint256"
        }
      ],
      "name": "Bid",
      "type": "event"
    },
    {
      "anonymous": false,
      "inputs": [
        {
          "indexed": true,
          "internalType": "address",
          "name": "lister",
          "type": "address"
        },
        {
          "indexed": true,
          "internalType": "address",
          "name": "nft",
          "type": "address"
        },
        {
          "indexed": true,
          "internalType": "uint256",
          "name": "nftId",
          "type": "uint256"
        },
        {
          "indexed": false,
          "internalType": "uint256",
          "name": "listingId",
          "type": "uint256"
        },
        {
          "indexed": false,
          "internalType": "uint256",
          "name": "minPrice",
          "type": "uint256"
        },
        {
          "indexed": false,
          "internalType": "uint256",
          "name": "endTime",
          "type": "uint256"
        },
        {
          "indexed": false,
          "internalType": "uint256",
          "name": "timestamp",
          "type": "uint256"
        }
      ],
      "name": "List",
      "type": "event"
    },
    {
      "inputs": [
        {
          "internalType": "uint256",
          "name": "listingID",
          "type": "uint256"
        }
      ],
      "name": "bid",
      "outputs": [],
      "stateMutability": "payable",
      "type": "function"
    },
    {
      "inputs": [
        {
          "internalType": "uint256",
          "name": "listingId",
          "type": "uint256"
        }
      ],
      "name": "end",
      "outputs": [],
      "stateMutability": "nonpayable",
      "type": "function"
    },
    {
      "inputs": [
        {
          "internalType": "uint256",
          "name": "listingId",
          "type": "uint256"
        }
      ],
      "name": "getListing",
      "outputs": [
        {
          "internalType": "address",
          "name": "",
          "type": "address"
        },
        {
          "internalType": "uint256",
          "name": "",
          "type": "uint256"
        },
        {
          "internalType": "uint256",
          "name": "",
          "type": "uint256"
        },
        {
          "internalType": "uint256",
          "name": "",
          "type": "uint256"
        },
        {
          "internalType": "uint256",
          "name": "",
          "type": "uint256"
        }
      ],
      "stateMutability": "view",
      "type": "function"
    },
    {
      "inputs": [
        {
          "internalType": "address",
          "name": "nft",
          "type": "address"
        },
        {
          "internalType": "uint256",
          "name": "nftId",
          "type": "uint256"
        },
        {
          "internalType": "uint256",
          "name": "minPrice",
          "type": "uint256"
        },
        {
          "internalType": "uint256",
          "name": "numMinutes",
          "type": "uint256"
        }
      ],
      "name": "list",
      "outputs": [],
      "stateMutability": "nonpayable",
      "type": "function"
    },
    {
      "inputs": [
        {
          "internalType": "address",
          "name": "operator",
          "type": "address"
        },
        {
          "internalType": "address",
          "name": "from",
          "type": "address"
        },
        {
          "internalType": "uint256",
          "name": "tokenId",
          "type": "uint256"
        },
        {
          "internalType": "bytes",
          "name": "data",
          "type": "bytes"
        }
      ],
      "name": "onERC721Received",
      "outputs": [
        {
          "internalType": "bytes4",
          "name": "",
          "type": "bytes4"
        }
      ],
      "stateMutability": "nonpayable",
      "type": "function"
    },
    {
      "inputs": [],
      "name": "withdrawFunds",
      "outputs": [],
      "stateMutability": "nonpayable",
      "type": "function"
    }
  ],
  "bytecode": "0x6080604052348015600f57600080fd5b506116c48061001f6000396000f3fe6080604052600436106100555760003560e01c80630ad245281461005a578063107a274a14610083578063150b7a02146100c457806324600fc314610101578063454a2ab314610118578063bb74a1c214610134575b600080fd5b34801561006657600080fd5b50610081600480360381019061007c9190610dd0565b61015d565b005b34801561008f57600080fd5b506100aa60048036038101906100a59190610dd0565b610449565b6040516100bb959493929190610e4d565b60405180910390f35b3480156100d057600080fd5b506100eb60048036038101906100e69190610f31565b61059e565b6040516100f89190610ff4565b60405180910390f35b34801561010d57600080fd5b506101166105b3565b005b610132600480360381019061012d9190610dd0565b6106ec565b005b34801561014057600080fd5b5061015b6004803603810190610156919061100f565b6109aa565b005b80600073ffffffffffffffffffffffffffffffffffffffff166001600083815260200190815260200160002060060160009054906101000a900473ffffffffffffffffffffffffffffffffffffffff1673ffffffffffffffffffffffffffffffffffffffff1603610203576040517f08c379a00000000000000000000000000000000000000000000000000000000081526004016101fa906110d3565b60405180910390fd5b600060016000848152602001908152602001600020905080600501544211610260576040517f08c379a00000000000000000000000000000000000000000000000000000000081526004016102579061113f565b60405180910390fd5b8060030154600260008360060160009054906101000a900473ffffffffffffffffffffffffffffffffffffffff1673ffffffffffffffffffffffffffffffffffffffff1673ffffffffffffffffffffffffffffffffffffffff16815260200190815260200160002060008282546102d7919061118e565b925050819055508060000160009054906101000a900473ffffffffffffffffffffffffffffffffffffffff1673ffffffffffffffffffffffffffffffffffffffff166342842e0e308360040160009054906101000a900473ffffffffffffffffffffffffffffffffffffffff1684600101546040518463ffffffff1660e01b8152600401610367939291906111c2565b600060405180830381600087803b15801561038157600080fd5b505af1158015610395573d6000803e3d6000fd5b5050505060016000848152602001908152602001600020600080820160006101000a81549073ffffffffffffffffffffffffffffffffffffffff02191690556001820160009055600282016000905560038201600090556004820160006101000a81549073ffffffffffffffffffffffffffffffffffffffff021916905560058201600090556006820160006101000a81549073ffffffffffffffffffffffffffffffffffffffff02191690555050505050565b600080600080600085600073ffffffffffffffffffffffffffffffffffffffff166001600083815260200190815260200160002060060160009054906101000a900473ffffffffffffffffffffffffffffffffffffffff1673ffffffffffffffffffffffffffffffffffffffff16036104f7576040517f08c379a00000000000000000000000000000000000000000000000000000000081526004016104ee906110d3565b60405180910390fd5b6001600088815260200190815260200160002060000160009054906101000a900473ffffffffffffffffffffffffffffffffffffffff166001600089815260200190815260200160002060010154600160008a815260200190815260200160002060030154600160008b815260200190815260200160002060020154600160008c815260200190815260200160002060050154955095509550955095505091939590929450565b600063150b7a0260e01b905095945050505050565b6000600260003373ffffffffffffffffffffffffffffffffffffffff1673ffffffffffffffffffffffffffffffffffffffff1681526020019081526020016000205490506000600260003373ffffffffffffffffffffffffffffffffffffffff1673ffffffffffffffffffffffffffffffffffffffff1681526020019081526020016000208190555060003373ffffffffffffffffffffffffffffffffffffffff16826040516106629061122a565b60006040518083038185875af1925050503d806000811461069f576040519150601f19603f3d011682016040523d82523d6000602084013e6106a4565b606091505b50509050806106e8576040517f08c379a00000000000000000000000000000000000000000000000000000000081526004016106df9061128b565b60405180910390fd5b5050565b80600073ffffffffffffffffffffffffffffffffffffffff166001600083815260200190815260200160002060060160009054906101000a900473ffffffffffffffffffffffffffffffffffffffff1673ffffffffffffffffffffffffffffffffffffffff1603610792576040517f08c379a0000000000000000000000000000000000000000000000000000000008152600401610789906110d3565b60405180910390fd5b600060016000848152602001908152602001600020905080600201543410156107f0576040517f08c379a00000000000000000000000000000000000000000000000000000000081526004016107e79061131d565b60405180910390fd5b80600301543411610836576040517f08c379a000000000000000000000000000000000000000000000000000000000815260040161082d906113af565b60405180910390fd5b8060050154421061087c576040517f08c379a00000000000000000000000000000000000000000000000000000000081526004016108739061141b565b60405180910390fd5b600081600301541115610908578060030154600260008360040160009054906101000a900473ffffffffffffffffffffffffffffffffffffffff1673ffffffffffffffffffffffffffffffffffffffff1673ffffffffffffffffffffffffffffffffffffffff1681526020019081526020016000206000828254610900919061118e565b925050819055505b348160030181905550338160040160006101000a81548173ffffffffffffffffffffffffffffffffffffffff021916908373ffffffffffffffffffffffffffffffffffffffff160217905550823373ffffffffffffffffffffffffffffffffffffffff167f4dcc013473324698bfbe263facec4ea4b1bc43624236542deabec62c2122b305344260405161099d92919061143b565b60405180910390a3505050565b60008490503373ffffffffffffffffffffffffffffffffffffffff168173ffffffffffffffffffffffffffffffffffffffff16636352211e866040518263ffffffff1660e01b81526004016109ff9190611464565b602060405180830381865afa158015610a1c573d6000803e3d6000fd5b505050506040513d601f19601f82011682018060405250810190610a409190611494565b73ffffffffffffffffffffffffffffffffffffffff1614610a96576040517f08c379a0000000000000000000000000000000000000000000000000000000008152600401610a8d9061150d565b60405180910390fd5b3073ffffffffffffffffffffffffffffffffffffffff168173ffffffffffffffffffffffffffffffffffffffff1663081812fc866040518263ffffffff1660e01b8152600401610ae69190611464565b602060405180830381865afa158015610b03573d6000803e3d6000fd5b505050506040513d601f19601f82011682018060405250810190610b279190611494565b73ffffffffffffffffffffffffffffffffffffffff1614610b7d576040517f08c379a0000000000000000000000000000000000000000000000000000000008152600401610b749061159f565b60405180910390fd5b8073ffffffffffffffffffffffffffffffffffffffff166342842e0e3330876040518463ffffffff1660e01b8152600401610bba939291906111c2565b600060405180830381600087803b158015610bd457600080fd5b505af1158015610be8573d6000803e3d6000fd5b50505050600060016000805481526020019081526020016000209050818160000160006101000a81548173ffffffffffffffffffffffffffffffffffffffff021916908373ffffffffffffffffffffffffffffffffffffffff160217905550848160010181905550838160020181905550603c83610c6691906115bf565b42610c71919061118e565b8160050181905550338160060160006101000a81548173ffffffffffffffffffffffffffffffffffffffff021916908373ffffffffffffffffffffffffffffffffffffffff160217905550338160040160006101000a81548173ffffffffffffffffffffffffffffffffffffffff021916908373ffffffffffffffffffffffffffffffffffffffff160217905550848673ffffffffffffffffffffffffffffffffffffffff163373ffffffffffffffffffffffffffffffffffffffff167fb3b930ec557f35dfe0ac5c275a7ec7a70dd6be1ec99d48e7c398a498610c6f1360005488866005015442604051610d699493929190611601565b60405180910390a4600080815480929190610d8390611646565b9190505550505050505050565b600080fd5b600080fd5b6000819050919050565b610dad81610d9a565b8114610db857600080fd5b50565b600081359050610dca81610da4565b92915050565b600060208284031215610de657610de5610d90565b5b6000610df484828501610dbb565b91505092915050565b600073ffffffffffffffffffffffffffffffffffffffff82169050919050565b6000610e2882610dfd565b9050919050565b610e3881610e1d565b82525050565b610e4781610d9a565b82525050565b600060a082019050610e626000830188610e2f565b610e6f6020830187610e3e565b610e7c6040830186610e3e565b610e896060830185610e3e565b610e966080830184610e3e565b9695505050505050565b610ea981610e1d565b8114610eb457600080fd5b50565b600081359050610ec681610ea0565b92915050565b600080fd5b600080fd5b600080fd5b60008083601f840112610ef157610ef0610ecc565b5b8235905067ffffffffffffffff811115610f0e57610f0d610ed1565b5b602083019150836001820283011115610f2a57610f29610ed6565b5b9250929050565b600080600080600060808688031215610f4d57610f4c610d90565b5b6000610f5b88828901610eb7565b9550506020610f6c88828901610eb7565b9450506040610f7d88828901610dbb565b935050606086013567ffffffffffffffff811115610f9e57610f9d610d95565b5b610faa88828901610edb565b92509250509295509295909350565b60007fffffffff0000000000000000000000000000000000000000000000000000000082169050919050565b610fee81610fb9565b82525050565b60006020820190506110096000830184610fe5565b92915050565b6000806000806080858703121561102957611028610d90565b5b600061103787828801610eb7565b945050602061104887828801610dbb565b935050604061105987828801610dbb565b925050606061106a87828801610dbb565b91505092959194509250565b600082825260208201905092915050565b7f4c697374696e6720646f6573206e6f7420657869737400000000000000000000600082015250565b60006110bd601683611076565b91506110c882611087565b602082019050919050565b600060208201905081810360008301526110ec816110b0565b9050919050565b7f41756374696f6e20686173206e6f7420656e6465642079657400000000000000600082015250565b6000611129601983611076565b9150611134826110f3565b602082019050919050565b600060208201905081810360008301526111588161111c565b9050919050565b7f4e487b7100000000000000000000000000000000000000000000000000000000600052601160045260246000fd5b600061119982610d9a565b91506111a483610d9a565b92508282019050808211156111bc576111bb61115f565b5b92915050565b60006060820190506111d76000830186610e2f565b6111e46020830185610e2f565b6111f16040830184610e3e565b949350505050565b600081905092915050565b50565b60006112146000836111f9565b915061121f82611204565b600082019050919050565b600061123582611207565b9150819050919050565b7f4661696c656420746f2073656e64204574686572000000000000000000000000600082015250565b6000611275601483611076565b91506112808261123f565b602082019050919050565b600060208201905081810360008301526112a481611268565b9050919050565b7f426964206d75737420626520686967686572207468616e20746865206d696e6960008201527f6d756d2070726963650000000000000000000000000000000000000000000000602082015250565b6000611307602983611076565b9150611312826112ab565b604082019050919050565b60006020820190508181036000830152611336816112fa565b9050919050565b7f426964206d75737420626520686967686572207468616e20746865206375727260008201527f656e742068696768657374206269640000000000000000000000000000000000602082015250565b6000611399602f83611076565b91506113a48261133d565b604082019050919050565b600060208201905081810360008301526113c88161138c565b9050919050565b7f41756374696f6e2068617320656e646564000000000000000000000000000000600082015250565b6000611405601183611076565b9150611410826113cf565b602082019050919050565b60006020820190508181036000830152611434816113f8565b9050919050565b60006040820190506114506000830185610e3e565b61145d6020830184610e3e565b9392505050565b60006020820190506114796000830184610e3e565b92915050565b60008151905061148e81610ea0565b92915050565b6000602082840312156114aa576114a9610d90565b5b60006114b88482850161147f565b91505092915050565b7f596f7520646f6e2774206f776e2074686973204e465400000000000000000000600082015250565b60006114f7601683611076565b9150611502826114c1565b602082019050919050565b60006020820190508181036000830152611526816114ea565b9050919050565b7f436f6e7472616374206973206e6f7420617070726f76656420746f207472616e60008201527f736665722074686973204e465400000000000000000000000000000000000000602082015250565b6000611589602d83611076565b91506115948261152d565b604082019050919050565b600060208201905081810360008301526115b88161157c565b9050919050565b60006115ca82610d9a565b91506115d583610d9a565b92508282026115e381610d9a565b915082820484148315176115fa576115f961115f565b5b5092915050565b60006080820190506116166000830187610e3e565b6116236020830186610e3e565b6116306040830185610e3e565b61163d6060830184610e3e565b95945050505050565b600061165182610d9a565b91507fffffffffffffffffffffffffffffffffffffffffffffffffffffffffffffffff82036116835761168261115f565b5b60018201905091905056fea2646970667358221220e30b55805d9fb8d8e80eaba15ed0769ace27cfadb75a5fab5ca8d6f62761c33764736f6c634300081c0033",
  "linkReferences": {},
  "deployedLinkReferences": {}
}