{
  "_format": "hh-sol-artifact-1",
  "contractName": "Auction",
  "sourceName": "contracts/Auction.sol",
  "abi": [
    {
      "anonymous": false,
      "inputs": [
        {
          "indexed": true,
          "internalType": "address",
          "name": "bidder",
          "type": "address"
        },
        {
          "indexed": true,
          "internalType": "uint256",
          "name": "listingId",
          "type": "uint256"
        },
        {
          "indexed": false,
          "internalType": "uint256",
          "name": "amount",
          "type": "uint256"
        },
        {
          "indexed": false,
          "internalType": "uint256",
          "name": "timestamp",
          "type": "uint256"
        }
      ],
      "name": "Bid",
      "type": "event"
    },
    {
      "anonymous": false,
      "inputs": [
        {
          "indexed": true,
          "internalType": "address",
          "name": "lister",
          "type": "address"
        },
        {
          "indexed": true,
          "internalType": "address",
          "name": "nft",
          "type": "address"
        },
        {
          "indexed": true,
          "internalType": "uint256",
          "name": "nftId",
          "type": "uint256"
        },
        {
          "indexed": false,
          "internalType": "uint256",
          "name": "listingId",
          "type": "uint256"
        },
        {
          "indexed": false,
          "internalType": "uint256",
          "name": "minPrice",
          "type": "uint256"
        },
        {
          "indexed": false,
          "internalType": "uint256",
          "name": "endTime",
          "type": "uint256"
        },
        {
          "indexed": false,
          "internalType": "uint256",
          "name": "timestamp",
          "type": "uint256"
        }
      ],
      "name": "List",
      "type": "event"
    },
    {
      "inputs": [
        {
          "internalType": "uint256",
          "name": "listingID",
          "type": "uint256"
        }
      ],
      "name": "bid",
      "outputs": [],
      "stateMutability": "payable",
      "type": "function"
    },
    {
      "inputs": [
        {
          "internalType": "uint256",
          "name": "listingId",
          "type": "uint256"
        }
      ],
      "name": "end",
      "outputs": [],
      "stateMutability": "nonpayable",
      "type": "function"
    },
    {
      "inputs": [
        {
          "internalType": "uint256",
          "name": "listingId",
          "type": "uint256"
        }
      ],
      "name": "getListing",
      "outputs": [
        {
          "internalType": "address",
          "name": "",
          "type": "address"
        },
        {
          "internalType": "uint256",
          "name": "",
          "type": "uint256"
        },
        {
          "internalType": "uint256",
          "name": "",
          "type": "uint256"
        },
        {
          "internalType": "uint256",
          "name": "",
          "type": "uint256"
        },
        {
          "internalType": "uint256",
          "name": "",
          "type": "uint256"
        }
      ],
      "stateMutability": "view",
      "type": "function"
    },
    {
      "inputs": [
        {
          "internalType": "address",
          "name": "nft",
          "type": "address"
        },
        {
          "internalType": "uint256",
          "name": "nftId",
          "type": "uint256"
        },
        {
          "internalType": "uint256",
          "name": "minPrice",
          "type": "uint256"
        },
        {
          "internalType": "uint256",
          "name": "numHours",
          "type": "uint256"
        }
      ],
      "name": "list",
      "outputs": [],
      "stateMutability": "nonpayable",
      "type": "function"
    },
    {
      "inputs": [
        {
          "internalType": "address",
          "name": "",
          "type": "address"
        },
        {
          "internalType": "address",
          "name": "",
          "type": "address"
        },
        {
          "internalType": "uint256",
          "name": "",
          "type": "uint256"
        },
        {
          "internalType": "bytes",
          "name": "",
          "type": "bytes"
        }
      ],
      "name": "onERC721Received",
      "outputs": [
        {
          "internalType": "bytes4",
          "name": "",
          "type": "bytes4"
        }
      ],
      "stateMutability": "pure",
      "type": "function"
    },
    {
      "inputs": [],
      "name": "withdrawFunds",
      "outputs": [],
      "stateMutability": "nonpayable",
      "type": "function"
    }
  ],
  "bytecode": "0x6080604052348015600f57600080fd5b50611df08061001f6000396000f3fe6080604052600436106100555760003560e01c80630ad245281461005a578063107a274a14610083578063150b7a02146100c457806324600fc314610101578063454a2ab314610118578063bb74a1c214610134575b600080fd5b34801561006657600080fd5b50610081600480360381019061007c919061121d565b61015d565b005b34801561008f57600080fd5b506100aa60048036038101906100a5919061121d565b6104db565b6040516100bb95949392919061129a565b60405180910390f35b3480156100d057600080fd5b506100eb60048036038101906100e6919061137e565b610630565b6040516100f89190611441565b60405180910390f35b34801561010d57600080fd5b50610116610645565b005b610132600480360381019061012d919061121d565b61087e565b005b34801561014057600080fd5b5061015b6004803603810190610156919061145c565b610bce565b005b80600073ffffffffffffffffffffffffffffffffffffffff166001600083815260200190815260200160002060060160009054906101000a900473ffffffffffffffffffffffffffffffffffffffff1673ffffffffffffffffffffffffffffffffffffffff1603610203576040517f08c379a00000000000000000000000000000000000000000000000000000000081526004016101fa90611520565b60405180910390fd5b600060016000848152602001908152602001600020905080600501544211610260576040517f08c379a00000000000000000000000000000000000000000000000000000000081526004016102579061158c565b60405180910390fd5b8060060160009054906101000a900473ffffffffffffffffffffffffffffffffffffffff1673ffffffffffffffffffffffffffffffffffffffff163373ffffffffffffffffffffffffffffffffffffffff16146102f2576040517f08c379a00000000000000000000000000000000000000000000000000000000081526004016102e99061161e565b60405180910390fd5b8060030154600260008360060160009054906101000a900473ffffffffffffffffffffffffffffffffffffffff1673ffffffffffffffffffffffffffffffffffffffff1673ffffffffffffffffffffffffffffffffffffffff1681526020019081526020016000206000828254610369919061166d565b925050819055508060000160009054906101000a900473ffffffffffffffffffffffffffffffffffffffff1673ffffffffffffffffffffffffffffffffffffffff166342842e0e308360040160009054906101000a900473ffffffffffffffffffffffffffffffffffffffff1684600101546040518463ffffffff1660e01b81526004016103f9939291906116a1565b600060405180830381600087803b15801561041357600080fd5b505af1158015610427573d6000803e3d6000fd5b5050505060016000848152602001908152602001600020600080820160006101000a81549073ffffffffffffffffffffffffffffffffffffffff02191690556001820160009055600282016000905560038201600090556004820160006101000a81549073ffffffffffffffffffffffffffffffffffffffff021916905560058201600090556006820160006101000a81549073ffffffffffffffffffffffffffffffffffffffff02191690555050505050565b600080600080600085600073ffffffffffffffffffffffffffffffffffffffff166001600083815260200190815260200160002060060160009054906101000a900473ffffffffffffffffffffffffffffffffffffffff1673ffffffffffffffffffffffffffffffffffffffff1603610589576040517f08c379a000000000000000000000000000000000000000000000000000000000815260040161058090611520565b60405180910390fd5b6001600088815260200190815260200160002060000160009054906101000a900473ffffffffffffffffffffffffffffffffffffffff166001600089815260200190815260200160002060010154600160008a815260200190815260200160002060030154600160008b815260200190815260200160002060020154600160008c815260200190815260200160002060050154955095509550955095505091939590929450565b600063150b7a0260e01b905095945050505050565b6106c36040518060400160405280601c81526020017f547279696e6720746f2077697468647261772e2042616c616e63653a00000000815250600260003373ffffffffffffffffffffffffffffffffffffffff1673ffffffffffffffffffffffffffffffffffffffff16815260200190815260200160002054611055565b6000600260003373ffffffffffffffffffffffffffffffffffffffff1673ffffffffffffffffffffffffffffffffffffffff1681526020019081526020016000205490506000811161074a576040517f08c379a00000000000000000000000000000000000000000000000000000000081526004016107419061174a565b60405180910390fd5b6000600260003373ffffffffffffffffffffffffffffffffffffffff1673ffffffffffffffffffffffffffffffffffffffff1681526020019081526020016000208190555060003373ffffffffffffffffffffffffffffffffffffffff16826040516107b59061179b565b60006040518083038185875af1925050503d80600081146107f2576040519150601f19603f3d011682016040523d82523d6000602084013e6107f7565b606091505b5050905061083a6040518060400160405280601581526020017f455448205472616e7366657220737563636573733a0000000000000000000000815250826110f1565b8061087a576040517f08c379a0000000000000000000000000000000000000000000000000000000008152600401610871906117fc565b60405180910390fd5b5050565b80600073ffffffffffffffffffffffffffffffffffffffff166001600083815260200190815260200160002060060160009054906101000a900473ffffffffffffffffffffffffffffffffffffffff1673ffffffffffffffffffffffffffffffffffffffff1603610924576040517f08c379a000000000000000000000000000000000000000000000000000000000815260040161091b90611520565b60405180910390fd5b60006001600084815260200190815260200160002090508060060160009054906101000a900473ffffffffffffffffffffffffffffffffffffffff1673ffffffffffffffffffffffffffffffffffffffff163373ffffffffffffffffffffffffffffffffffffffff16036109cd576040517f08c379a00000000000000000000000000000000000000000000000000000000081526004016109c49061188e565b60405180910390fd5b8060020154341015610a14576040517f08c379a0000000000000000000000000000000000000000000000000000000008152600401610a0b90611920565b60405180910390fd5b80600301543411610a5a576040517f08c379a0000000000000000000000000000000000000000000000000000000008152600401610a51906119b2565b60405180910390fd5b80600501544210610aa0576040517f08c379a0000000000000000000000000000000000000000000000000000000008152600401610a9790611a1e565b60405180910390fd5b600081600301541115610b2c578060030154600260008360040160009054906101000a900473ffffffffffffffffffffffffffffffffffffffff1673ffffffffffffffffffffffffffffffffffffffff1673ffffffffffffffffffffffffffffffffffffffff1681526020019081526020016000206000828254610b24919061166d565b925050819055505b348160030181905550338160040160006101000a81548173ffffffffffffffffffffffffffffffffffffffff021916908373ffffffffffffffffffffffffffffffffffffffff160217905550823373ffffffffffffffffffffffffffffffffffffffff167f4dcc013473324698bfbe263facec4ea4b1bc43624236542deabec62c2122b3053442604051610bc1929190611a3e565b60405180910390a3505050565b60008490503373ffffffffffffffffffffffffffffffffffffffff168173ffffffffffffffffffffffffffffffffffffffff16636352211e866040518263ffffffff1660e01b8152600401610c239190611a67565b602060405180830381865afa158015610c40573d6000803e3d6000fd5b505050506040513d601f19601f82011682018060405250810190610c649190611a97565b73ffffffffffffffffffffffffffffffffffffffff1614610cba576040517f08c379a0000000000000000000000000000000000000000000000000000000008152600401610cb190611b10565b60405180910390fd5b3073ffffffffffffffffffffffffffffffffffffffff168173ffffffffffffffffffffffffffffffffffffffff1663081812fc866040518263ffffffff1660e01b8152600401610d0a9190611a67565b602060405180830381865afa158015610d27573d6000803e3d6000fd5b505050506040513d601f19601f82011682018060405250810190610d4b9190611a97565b73ffffffffffffffffffffffffffffffffffffffff1614610da1576040517f08c379a0000000000000000000000000000000000000000000000000000000008152600401610d9890611ba2565b60405180910390fd5b8073ffffffffffffffffffffffffffffffffffffffff166342842e0e3330876040518463ffffffff1660e01b8152600401610dde939291906116a1565b600060405180830381600087803b158015610df857600080fd5b505af1158015610e0c573d6000803e3d6000fd5b505050506040518060e001604052808273ffffffffffffffffffffffffffffffffffffffff16815260200185815260200184815260200160008152602001600073ffffffffffffffffffffffffffffffffffffffff168152602001603c84610e749190611bc2565b42610e7f919061166d565b81526020013373ffffffffffffffffffffffffffffffffffffffff16815250600160008054815260200190815260200160002060008201518160000160006101000a81548173ffffffffffffffffffffffffffffffffffffffff021916908373ffffffffffffffffffffffffffffffffffffffff16021790555060208201518160010155604082015181600201556060820151816003015560808201518160040160006101000a81548173ffffffffffffffffffffffffffffffffffffffff021916908373ffffffffffffffffffffffffffffffffffffffff16021790555060a0820151816005015560c08201518160060160006101000a81548173ffffffffffffffffffffffffffffffffffffffff021916908373ffffffffffffffffffffffffffffffffffffffff160217905550905050838573ffffffffffffffffffffffffffffffffffffffff163373ffffffffffffffffffffffffffffffffffffffff167fb3b930ec557f35dfe0ac5c275a7ec7a70dd6be1ec99d48e7c398a498610c6f1360005487603c886110139190611bc2565b4261101e919061166d565b4260405161102f9493929190611c04565b60405180910390a460008081548092919061104990611c49565b91905055505050505050565b6110ed828260405160240161106b929190611d10565b6040516020818303038152906040527fb60e72cc000000000000000000000000000000000000000000000000000000007bffffffffffffffffffffffffffffffffffffffffffffffffffffffff19166020820180517bffffffffffffffffffffffffffffffffffffffffffffffffffffffff838183161783525050505061118d565b5050565b6111898282604051602401611107929190611d5b565b6040516020818303038152906040527fc3b55635000000000000000000000000000000000000000000000000000000007bffffffffffffffffffffffffffffffffffffffffffffffffffffffff19166020820180517bffffffffffffffffffffffffffffffffffffffffffffffffffffffff838183161783525050505061118d565b5050565b6111a48161119c6111a76111c8565b63ffffffff16565b50565b60006a636f6e736f6c652e6c6f679050600080835160208501845afa505050565b6111d3819050919050565b6111db611d8b565b565b600080fd5b600080fd5b6000819050919050565b6111fa816111e7565b811461120557600080fd5b50565b600081359050611217816111f1565b92915050565b600060208284031215611233576112326111dd565b5b600061124184828501611208565b91505092915050565b600073ffffffffffffffffffffffffffffffffffffffff82169050919050565b60006112758261124a565b9050919050565b6112858161126a565b82525050565b611294816111e7565b82525050565b600060a0820190506112af600083018861127c565b6112bc602083018761128b565b6112c9604083018661128b565b6112d6606083018561128b565b6112e3608083018461128b565b9695505050505050565b6112f68161126a565b811461130157600080fd5b50565b600081359050611313816112ed565b92915050565b600080fd5b600080fd5b600080fd5b60008083601f84011261133e5761133d611319565b5b8235905067ffffffffffffffff81111561135b5761135a61131e565b5b60208301915083600182028301111561137757611376611323565b5b9250929050565b60008060008060006080868803121561139a576113996111dd565b5b60006113a888828901611304565b95505060206113b988828901611304565b94505060406113ca88828901611208565b935050606086013567ffffffffffffffff8111156113eb576113ea6111e2565b5b6113f788828901611328565b92509250509295509295909350565b60007fffffffff0000000000000000000000000000000000000000000000000000000082169050919050565b61143b81611406565b82525050565b60006020820190506114566000830184611432565b92915050565b60008060008060808587031215611476576114756111dd565b5b600061148487828801611304565b945050602061149587828801611208565b93505060406114a687828801611208565b92505060606114b787828801611208565b91505092959194509250565b600082825260208201905092915050565b7f4c697374696e6720646f6573206e6f7420657869737400000000000000000000600082015250565b600061150a6016836114c3565b9150611515826114d4565b602082019050919050565b60006020820190508181036000830152611539816114fd565b9050919050565b7f41756374696f6e20686173206e6f7420656e6465642079657400000000000000600082015250565b60006115766019836114c3565b915061158182611540565b602082019050919050565b600060208201905081810360008301526115a581611569565b9050919050565b7f596f7520617265206e6f7420746865206f776e6572206f662074686973206c6960008201527f7374696e67000000000000000000000000000000000000000000000000000000602082015250565b60006116086025836114c3565b9150611613826115ac565b604082019050919050565b60006020820190508181036000830152611637816115fb565b9050919050565b7f4e487b7100000000000000000000000000000000000000000000000000000000600052601160045260246000fd5b6000611678826111e7565b9150611683836111e7565b925082820190508082111561169b5761169a61163e565b5b92915050565b60006060820190506116b6600083018661127c565b6116c3602083018561127c565b6116d0604083018461128b565b949350505050565b7f4e6f2066756e647320617661696c61626c6520666f722077697468647261776160008201527f6c00000000000000000000000000000000000000000000000000000000000000602082015250565b60006117346021836114c3565b915061173f826116d8565b604082019050919050565b6000602082019050818103600083015261176381611727565b9050919050565b600081905092915050565b50565b600061178560008361176a565b915061179082611775565b600082019050919050565b60006117a682611778565b9150819050919050565b7f4661696c656420746f2073656e64204574686572000000000000000000000000600082015250565b60006117e66014836114c3565b91506117f1826117b0565b602082019050919050565b60006020820190508181036000830152611815816117d9565b9050919050565b7f4f776e65722063616e6e6f7420626964206f6e207468656972206f776e20617560008201527f6374696f6e000000000000000000000000000000000000000000000000000000602082015250565b60006118786025836114c3565b91506118838261181c565b604082019050919050565b600060208201905081810360008301526118a78161186b565b9050919050565b7f426964206d75737420626520686967686572207468616e20746865206d696e6960008201527f6d756d2070726963650000000000000000000000000000000000000000000000602082015250565b600061190a6029836114c3565b9150611915826118ae565b604082019050919050565b60006020820190508181036000830152611939816118fd565b9050919050565b7f426964206d75737420626520686967686572207468616e20746865206375727260008201527f656e742068696768657374206269640000000000000000000000000000000000602082015250565b600061199c602f836114c3565b91506119a782611940565b604082019050919050565b600060208201905081810360008301526119cb8161198f565b9050919050565b7f41756374696f6e2068617320656e646564000000000000000000000000000000600082015250565b6000611a086011836114c3565b9150611a13826119d2565b602082019050919050565b60006020820190508181036000830152611a37816119fb565b9050919050565b6000604082019050611a53600083018561128b565b611a60602083018461128b565b9392505050565b6000602082019050611a7c600083018461128b565b92915050565b600081519050611a91816112ed565b92915050565b600060208284031215611aad57611aac6111dd565b5b6000611abb84828501611a82565b91505092915050565b7f596f7520646f6e2774206f776e2074686973204e465400000000000000000000600082015250565b6000611afa6016836114c3565b9150611b0582611ac4565b602082019050919050565b60006020820190508181036000830152611b2981611aed565b9050919050565b7f436f6e7472616374206973204e4f5420617070726f76656420746f207472616e60008201527f736665722074686973204e465400000000000000000000000000000000000000602082015250565b6000611b8c602d836114c3565b9150611b9782611b30565b604082019050919050565b60006020820190508181036000830152611bbb81611b7f565b9050919050565b6000611bcd826111e7565b9150611bd8836111e7565b9250828202611be6816111e7565b91508282048414831517611bfd57611bfc61163e565b5b5092915050565b6000608082019050611c19600083018761128b565b611c26602083018661128b565b611c33604083018561128b565b611c40606083018461128b565b95945050505050565b6000611c54826111e7565b91507fffffffffffffffffffffffffffffffffffffffffffffffffffffffffffffffff8203611c8657611c8561163e565b5b600182019050919050565b600081519050919050565b60005b83811015611cba578082015181840152602081019050611c9f565b60008484015250505050565b6000601f19601f8301169050919050565b6000611ce282611c91565b611cec81856114c3565b9350611cfc818560208601611c9c565b611d0581611cc6565b840191505092915050565b60006040820190508181036000830152611d2a8185611cd7565b9050611d39602083018461128b565b9392505050565b60008115159050919050565b611d5581611d40565b82525050565b60006040820190508181036000830152611d758185611cd7565b9050611d846020830184611d4c565b9392505050565b7f4e487b7100000000000000000000000000000000000000000000000000000000600052605160045260246000fdfea264697066735822122042526ed90edc805f0e45ee931c81407c4287e3926a365c468537e1be587c81c064736f6c634300081c0033",
  "linkReferences": {},
  "deployedLinkReferences": {}
}