{
  "_format": "hh-sol-artifact-1",
  "contractName": "Minty",
  "sourceName": "contracts/Minty.sol",
  "abi": [
    {
      "inputs": [
        {
          "internalType": "string",
          "name": "tokenName",
          "type": "string"
        },
        {
          "internalType": "string",
          "name": "symbol",
          "type": "string"
        }
      ],
      "stateMutability": "nonpayable",
      "type": "constructor"
    },
    {
      "anonymous": false,
      "inputs": [
        {
          "indexed": true,
          "internalType": "address",
          "name": "owner",
          "type": "address"
        },
        {
          "indexed": true,
          "internalType": "address",
          "name": "approved",
          "type": "address"
        },
        {
          "indexed": true,
          "internalType": "uint256",
          "name": "tokenId",
          "type": "uint256"
        }
      ],
      "name": "Approval",
      "type": "event"
    },
    {
      "anonymous": false,
      "inputs": [
        {
          "indexed": true,
          "internalType": "address",
          "name": "owner",
          "type": "address"
        },
        {
          "indexed": true,
          "internalType": "address",
          "name": "operator",
          "type": "address"
        },
        {
          "indexed": false,
          "internalType": "bool",
          "name": "approved",
          "type": "bool"
        }
      ],
      "name": "ApprovalForAll",
      "type": "event"
    },
    {
      "anonymous": false,
      "inputs": [
        {
          "indexed": false,
          "internalType": "uint256",
          "name": "_fromTokenId",
          "type": "uint256"
        },
        {
          "indexed": false,
          "internalType": "uint256",
          "name": "_toTokenId",
          "type": "uint256"
        }
      ],
      "name": "BatchMetadataUpdate",
      "type": "event"
    },
    {
      "anonymous": false,
      "inputs": [
        {
          "indexed": false,
          "internalType": "uint256",
          "name": "_tokenId",
          "type": "uint256"
        }
      ],
      "name": "MetadataUpdate",
      "type": "event"
    },
    {
      "anonymous": false,
      "inputs": [
        {
          "indexed": true,
          "internalType": "address",
          "name": "from",
          "type": "address"
        },
        {
          "indexed": true,
          "internalType": "address",
          "name": "to",
          "type": "address"
        },
        {
          "indexed": true,
          "internalType": "uint256",
          "name": "tokenId",
          "type": "uint256"
        }
      ],
      "name": "Transfer",
      "type": "event"
    },
    {
      "inputs": [
        {
          "internalType": "address",
          "name": "to",
          "type": "address"
        },
        {
          "internalType": "uint256",
          "name": "tokenId",
          "type": "uint256"
        }
      ],
      "name": "approve",
      "outputs": [],
      "stateMutability": "nonpayable",
      "type": "function"
    },
    {
      "inputs": [
        {
          "internalType": "address",
          "name": "owner",
          "type": "address"
        }
      ],
      "name": "balanceOf",
      "outputs": [
        {
          "internalType": "uint256",
          "name": "",
          "type": "uint256"
        }
      ],
      "stateMutability": "view",
      "type": "function"
    },
    {
      "inputs": [
        {
          "internalType": "uint256",
          "name": "tokenId",
          "type": "uint256"
        }
      ],
      "name": "getApproved",
      "outputs": [
        {
          "internalType": "address",
          "name": "",
          "type": "address"
        }
      ],
      "stateMutability": "view",
      "type": "function"
    },
    {
      "inputs": [],
      "name": "getTotalMintedTokens",
      "outputs": [
        {
          "internalType": "uint256",
          "name": "",
          "type": "uint256"
        }
      ],
      "stateMutability": "view",
      "type": "function"
    },
    {
      "inputs": [
        {
          "internalType": "address",
          "name": "owner",
          "type": "address"
        },
        {
          "internalType": "address",
          "name": "operator",
          "type": "address"
        }
      ],
      "name": "isApprovedForAll",
      "outputs": [
        {
          "internalType": "bool",
          "name": "",
          "type": "bool"
        }
      ],
      "stateMutability": "view",
      "type": "function"
    },
    {
      "inputs": [
        {
          "internalType": "address",
          "name": "owner",
          "type": "address"
        },
        {
          "internalType": "string",
          "name": "metadataURI",
          "type": "string"
        }
      ],
      "name": "mintToken",
      "outputs": [
        {
          "internalType": "uint256",
          "name": "",
          "type": "uint256"
        }
      ],
      "stateMutability": "nonpayable",
      "type": "function"
    },
    {
      "inputs": [],
      "name": "name",
      "outputs": [
        {
          "internalType": "string",
          "name": "",
          "type": "string"
        }
      ],
      "stateMutability": "view",
      "type": "function"
    },
    {
      "inputs": [
        {
          "internalType": "uint256",
          "name": "tokenId",
          "type": "uint256"
        }
      ],
      "name": "ownerOf",
      "outputs": [
        {
          "internalType": "address",
          "name": "",
          "type": "address"
        }
      ],
      "stateMutability": "view",
      "type": "function"
    },
    {
      "inputs": [
        {
          "internalType": "address",
          "name": "from",
          "type": "address"
        },
        {
          "internalType": "address",
          "name": "to",
          "type": "address"
        },
        {
          "internalType": "uint256",
          "name": "tokenId",
          "type": "uint256"
        }
      ],
      "name": "safeTransferFrom",
      "outputs": [],
      "stateMutability": "nonpayable",
      "type": "function"
    },
    {
      "inputs": [
        {
          "internalType": "address",
          "name": "from",
          "type": "address"
        },
        {
          "internalType": "address",
          "name": "to",
          "type": "address"
        },
        {
          "internalType": "uint256",
          "name": "tokenId",
          "type": "uint256"
        },
        {
          "internalType": "bytes",
          "name": "data",
          "type": "bytes"
        }
      ],
      "name": "safeTransferFrom",
      "outputs": [],
      "stateMutability": "nonpayable",
      "type": "function"
    },
    {
      "inputs": [
        {
          "internalType": "address",
          "name": "operator",
          "type": "address"
        },
        {
          "internalType": "bool",
          "name": "approved",
          "type": "bool"
        }
      ],
      "name": "setApprovalForAll",
      "outputs": [],
      "stateMutability": "nonpayable",
      "type": "function"
    },
    {
      "inputs": [
        {
          "internalType": "bytes4",
          "name": "interfaceId",
          "type": "bytes4"
        }
      ],
      "name": "supportsInterface",
      "outputs": [
        {
          "internalType": "bool",
          "name": "",
          "type": "bool"
        }
      ],
      "stateMutability": "view",
      "type": "function"
    },
    {
      "inputs": [],
      "name": "symbol",
      "outputs": [
        {
          "internalType": "string",
          "name": "",
          "type": "string"
        }
      ],
      "stateMutability": "view",
      "type": "function"
    },
    {
      "inputs": [
        {
          "internalType": "uint256",
          "name": "tokenId",
          "type": "uint256"
        }
      ],
      "name": "tokenURI",
      "outputs": [
        {
          "internalType": "string",
          "name": "",
          "type": "string"
        }
      ],
      "stateMutability": "view",
      "type": "function"
    },
    {
      "inputs": [
        {
          "internalType": "address",
          "name": "from",
          "type": "address"
        },
        {
          "internalType": "address",
          "name": "to",
          "type": "address"
        },
        {
          "internalType": "uint256",
          "name": "tokenId",
          "type": "uint256"
        }
      ],
      "name": "transferFrom",
      "outputs": [],
      "stateMutability": "nonpayable",
      "type": "function"
    }
  ],
  "bytecode": "0x608060405234801561001057600080fd5b506040516130df3803806130df833981810160405281019061003291906101d2565b81818160009081610043919061046b565b508060019081610053919061046b565b505050505061053d565b6000604051905090565b600080fd5b600080fd5b600080fd5b600080fd5b6000601f19601f8301169050919050565b7f4e487b7100000000000000000000000000000000000000000000000000000000600052604160045260246000fd5b6100c48261007b565b810181811067ffffffffffffffff821117156100e3576100e261008c565b5b80604052505050565b60006100f661005d565b905061010282826100bb565b919050565b600067ffffffffffffffff8211156101225761012161008c565b5b61012b8261007b565b9050602081019050919050565b60005b8381101561015657808201518184015260208101905061013b565b60008484015250505050565b600061017561017084610107565b6100ec565b90508281526020810184848401111561019157610190610076565b5b61019c848285610138565b509392505050565b600082601f8301126101b9576101b8610071565b5b81516101c9848260208601610162565b91505092915050565b600080604083850312156101e9576101e8610067565b5b600083015167ffffffffffffffff8111156102075761020661006c565b5b610213858286016101a4565b925050602083015167ffffffffffffffff8111156102345761023361006c565b5b610240858286016101a4565b9150509250929050565b600081519050919050565b7f4e487b7100000000000000000000000000000000000000000000000000000000600052602260045260246000fd5b6000600282049050600182168061029c57607f821691505b6020821081036102af576102ae610255565b5b50919050565b60008190508160005260206000209050919050565b60006020601f8301049050919050565b600082821b905092915050565b6000600883026103177fffffffffffffffffffffffffffffffffffffffffffffffffffffffffffffffff826102da565b61032186836102da565b95508019841693508086168417925050509392505050565b6000819050919050565b6000819050919050565b600061036861036361035e84610339565b610343565b610339565b9050919050565b6000819050919050565b6103828361034d565b61039661038e8261036f565b8484546102e7565b825550505050565b600090565b6103ab61039e565b6103b6818484610379565b505050565b5b818110156103da576103cf6000826103a3565b6001810190506103bc565b5050565b601f82111561041f576103f0816102b5565b6103f9846102ca565b81016020851015610408578190505b61041c610414856102ca565b8301826103bb565b50505b505050565b600082821c905092915050565b600061044260001984600802610424565b1980831691505092915050565b600061045b8383610431565b9150826002028217905092915050565b6104748261024a565b67ffffffffffffffff81111561048d5761048c61008c565b5b6104978254610284565b6104a28282856103de565b600060209050601f8311600181146104d557600084156104c3578287015190505b6104cd858261044f565b865550610535565b601f1984166104e3866102b5565b60005b8281101561050b578489015182556001820191506020850194506020810190506104e6565b868310156105285784890151610524601f891682610431565b8355505b6001600288020188555050505b505050505050565b612b938061054c6000396000f3fe608060405234801561001057600080fd5b50600436106100f55760003560e01c80636352211e11610097578063b88d4fde11610066578063b88d4fde14610296578063c87b56dd146102b2578063e985e9c5146102e2578063f67a769c14610312576100f5565b80636352211e146101fc57806370a082311461022c57806395d89b411461025c578063a22cb4651461027a576100f5565b8063095ea7b3116100d3578063095ea7b31461017857806323b872dd146101945780633d02d0c9146101b057806342842e0e146101e0576100f5565b806301ffc9a7146100fa57806306fdde031461012a578063081812fc14610148575b600080fd5b610114600480360381019061010f9190611a82565b610330565b6040516101219190611aca565b60405180910390f35b610132610391565b60405161013f9190611b75565b60405180910390f35b610162600480360381019061015d9190611bcd565b610423565b60405161016f9190611c3b565b60405180910390f35b610192600480360381019061018d9190611c82565b610469565b005b6101ae60048036038101906101a99190611cc2565b610580565b005b6101ca60048036038101906101c59190611e4a565b6105e0565b6040516101d79190611eb5565b60405180910390f35b6101fa60048036038101906101f59190611cc2565b610618565b005b61021660048036038101906102119190611bcd565b610638565b6040516102239190611c3b565b60405180910390f35b61024660048036038101906102419190611ed0565b6106be565b6040516102539190611eb5565b60405180910390f35b610264610775565b6040516102719190611b75565b60405180910390f35b610294600480360381019061028f9190611f29565b610807565b005b6102b060048036038101906102ab919061200a565b61081d565b005b6102cc60048036038101906102c79190611bcd565b61087f565b6040516102d99190611b75565b60405180910390f35b6102fc60048036038101906102f7919061208d565b610991565b6040516103099190611aca565b60405180910390f35b61031a610a25565b6040516103279190611eb5565b60405180910390f35b6000634906490660e01b7bffffffffffffffffffffffffffffffffffffffffffffffffffffffff1916827bffffffffffffffffffffffffffffffffffffffffffffffffffffffff1916148061038a575061038982610a36565b5b9050919050565b6060600080546103a0906120fc565b80601f01602080910402602001604051908101604052809291908181526020018280546103cc906120fc565b80156104195780601f106103ee57610100808354040283529160200191610419565b820191906000526020600020905b8154815290600101906020018083116103fc57829003601f168201915b5050505050905090565b600061042e82610b18565b6004600083815260200190815260200160002060009054906101000a900473ffffffffffffffffffffffffffffffffffffffff169050919050565b600061047482610638565b90508073ffffffffffffffffffffffffffffffffffffffff168373ffffffffffffffffffffffffffffffffffffffff16036104e4576040517f08c379a00000000000000000000000000000000000000000000000000000000081526004016104db9061219f565b60405180910390fd5b8073ffffffffffffffffffffffffffffffffffffffff16610503610b63565b73ffffffffffffffffffffffffffffffffffffffff16148061053257506105318161052c610b63565b610991565b5b610571576040517f08c379a000000000000000000000000000000000000000000000000000000000815260040161056890612231565b60405180910390fd5b61057b8383610b6b565b505050565b61059161058b610b63565b82610c24565b6105d0576040517f08c379a00000000000000000000000000000000000000000000000000000000081526004016105c7906122c3565b60405180910390fd5b6105db838383610cb9565b505050565b60006105ec6007610fb2565b60006105f86007610fc8565b90506106048482610fd6565b61060e8184610ff4565b8091505092915050565b6106338383836040518060200160405280600081525061081d565b505050565b60008061064483611098565b9050600073ffffffffffffffffffffffffffffffffffffffff168173ffffffffffffffffffffffffffffffffffffffff16036106b5576040517f08c379a00000000000000000000000000000000000000000000000000000000081526004016106ac9061232f565b60405180910390fd5b80915050919050565b60008073ffffffffffffffffffffffffffffffffffffffff168273ffffffffffffffffffffffffffffffffffffffff160361072e576040517f08c379a0000000000000000000000000000000000000000000000000000000008152600401610725906123c1565b60405180910390fd5b600360008373ffffffffffffffffffffffffffffffffffffffff1673ffffffffffffffffffffffffffffffffffffffff168152602001908152602001600020549050919050565b606060018054610784906120fc565b80601f01602080910402602001604051908101604052809291908181526020018280546107b0906120fc565b80156107fd5780601f106107d2576101008083540402835291602001916107fd565b820191906000526020600020905b8154815290600101906020018083116107e057829003601f168201915b5050505050905090565b610819610812610b63565b83836110d5565b5050565b61082e610828610b63565b83610c24565b61086d576040517f08c379a0000000000000000000000000000000000000000000000000000000008152600401610864906122c3565b60405180910390fd5b61087984848484611241565b50505050565b606061088a82610b18565b60006006600084815260200190815260200160002080546108aa906120fc565b80601f01602080910402602001604051908101604052809291908181526020018280546108d6906120fc565b80156109235780601f106108f857610100808354040283529160200191610923565b820191906000526020600020905b81548152906001019060200180831161090657829003601f168201915b50505050509050600061093461129d565b9050600081510361094957819250505061098c565b60008251111561097e57808260405160200161096692919061241d565b6040516020818303038152906040529250505061098c565b610987846112b4565b925050505b919050565b6000600560008473ffffffffffffffffffffffffffffffffffffffff1673ffffffffffffffffffffffffffffffffffffffff16815260200190815260200160002060008373ffffffffffffffffffffffffffffffffffffffff1673ffffffffffffffffffffffffffffffffffffffff16815260200190815260200160002060009054906101000a900460ff16905092915050565b6000610a316007610fc8565b905090565b60007f80ac58cd000000000000000000000000000000000000000000000000000000007bffffffffffffffffffffffffffffffffffffffffffffffffffffffff1916827bffffffffffffffffffffffffffffffffffffffffffffffffffffffff19161480610b0157507f5b5e139f000000000000000000000000000000000000000000000000000000007bffffffffffffffffffffffffffffffffffffffffffffffffffffffff1916827bffffffffffffffffffffffffffffffffffffffffffffffffffffffff1916145b80610b115750610b108261131c565b5b9050919050565b610b2181611386565b610b60576040517f08c379a0000000000000000000000000000000000000000000000000000000008152600401610b579061232f565b60405180910390fd5b50565b600033905090565b816004600083815260200190815260200160002060006101000a81548173ffffffffffffffffffffffffffffffffffffffff021916908373ffffffffffffffffffffffffffffffffffffffff160217905550808273ffffffffffffffffffffffffffffffffffffffff16610bde83610638565b73ffffffffffffffffffffffffffffffffffffffff167f8c5be1e5ebec7d5bd14f71427d1e84f3dd0314c0f7b2291e5b200ac8c7c3b92560405160405180910390a45050565b600080610c3083610638565b90508073ffffffffffffffffffffffffffffffffffffffff168473ffffffffffffffffffffffffffffffffffffffff161480610c725750610c718185610991565b5b80610cb057508373ffffffffffffffffffffffffffffffffffffffff16610c9884610423565b73ffffffffffffffffffffffffffffffffffffffff16145b91505092915050565b8273ffffffffffffffffffffffffffffffffffffffff16610cd982610638565b73ffffffffffffffffffffffffffffffffffffffff1614610d2f576040517f08c379a0000000000000000000000000000000000000000000000000000000008152600401610d26906124b3565b60405180910390fd5b600073ffffffffffffffffffffffffffffffffffffffff168273ffffffffffffffffffffffffffffffffffffffff1603610d9e576040517f08c379a0000000000000000000000000000000000000000000000000000000008152600401610d9590612545565b60405180910390fd5b610dab83838360016113c7565b8273ffffffffffffffffffffffffffffffffffffffff16610dcb82610638565b73ffffffffffffffffffffffffffffffffffffffff1614610e21576040517f08c379a0000000000000000000000000000000000000000000000000000000008152600401610e18906124b3565b60405180910390fd5b6004600082815260200190815260200160002060006101000a81549073ffffffffffffffffffffffffffffffffffffffff02191690556001600360008573ffffffffffffffffffffffffffffffffffffffff1673ffffffffffffffffffffffffffffffffffffffff168152602001908152602001600020600082825403925050819055506001600360008473ffffffffffffffffffffffffffffffffffffffff1673ffffffffffffffffffffffffffffffffffffffff16815260200190815260200160002060008282540192505081905550816002600083815260200190815260200160002060006101000a81548173ffffffffffffffffffffffffffffffffffffffff021916908373ffffffffffffffffffffffffffffffffffffffff160217905550808273ffffffffffffffffffffffffffffffffffffffff168473ffffffffffffffffffffffffffffffffffffffff167fddf252ad1be2c89b69c2b068fc378daa952ba7f163c4a11628f55a4df523b3ef60405160405180910390a4610fad83838360016113cd565b505050565b6001816000016000828254019250508190555050565b600081600001549050919050565b610ff08282604051806020016040528060008152506113d3565b5050565b610ffd82611386565b61103c576040517f08c379a0000000000000000000000000000000000000000000000000000000008152600401611033906125d7565b60405180910390fd5b8060066000848152602001908152602001600020908161105c91906127a3565b507ff8e1a15aba9398e019f0b49df1a4fde98ee17ae345cb5f6b5e2c27f5033e8ce78260405161108c9190611eb5565b60405180910390a15050565b60006002600083815260200190815260200160002060009054906101000a900473ffffffffffffffffffffffffffffffffffffffff169050919050565b8173ffffffffffffffffffffffffffffffffffffffff168373ffffffffffffffffffffffffffffffffffffffff1603611143576040517f08c379a000000000000000000000000000000000000000000000000000000000815260040161113a906128c1565b60405180910390fd5b80600560008573ffffffffffffffffffffffffffffffffffffffff1673ffffffffffffffffffffffffffffffffffffffff16815260200190815260200160002060008473ffffffffffffffffffffffffffffffffffffffff1673ffffffffffffffffffffffffffffffffffffffff16815260200190815260200160002060006101000a81548160ff0219169083151502179055508173ffffffffffffffffffffffffffffffffffffffff168373ffffffffffffffffffffffffffffffffffffffff167f17307eab39ab6107e8899845ad3d59bd9653f200f220920489ca2b5937696c31836040516112349190611aca565b60405180910390a3505050565b61124c848484610cb9565b6112588484848461142e565b611297576040517f08c379a000000000000000000000000000000000000000000000000000000000815260040161128e90612953565b60405180910390fd5b50505050565b606060405180602001604052806000815250905090565b60606112bf82610b18565b60006112c961129d565b905060008151116112e95760405180602001604052806000815250611314565b806112f3846115b5565b60405160200161130492919061241d565b6040516020818303038152906040525b915050919050565b60007f01ffc9a7000000000000000000000000000000000000000000000000000000007bffffffffffffffffffffffffffffffffffffffffffffffffffffffff1916827bffffffffffffffffffffffffffffffffffffffffffffffffffffffff1916149050919050565b60008073ffffffffffffffffffffffffffffffffffffffff166113a883611098565b73ffffffffffffffffffffffffffffffffffffffff1614159050919050565b50505050565b50505050565b6113dd8383611683565b6113ea600084848461142e565b611429576040517f08c379a000000000000000000000000000000000000000000000000000000000815260040161142090612953565b60405180910390fd5b505050565b600061144f8473ffffffffffffffffffffffffffffffffffffffff166118a0565b156115a8578373ffffffffffffffffffffffffffffffffffffffff1663150b7a02611478610b63565b8786866040518563ffffffff1660e01b815260040161149a94939291906129c8565b6020604051808303816000875af19250505080156114d657506040513d601f19601f820116820180604052508101906114d39190612a29565b60015b611558573d8060008114611506576040519150601f19603f3d011682016040523d82523d6000602084013e61150b565b606091505b506000815103611550576040517f08c379a000000000000000000000000000000000000000000000000000000000815260040161154790612953565b60405180910390fd5b805181602001fd5b63150b7a0260e01b7bffffffffffffffffffffffffffffffffffffffffffffffffffffffff1916817bffffffffffffffffffffffffffffffffffffffffffffffffffffffff1916149150506115ad565b600190505b949350505050565b6060600060016115c4846118c3565b01905060008167ffffffffffffffff8111156115e3576115e2611d1f565b5b6040519080825280601f01601f1916602001820160405280156116155781602001600182028036833780820191505090505b509050600082602001820190505b600115611678578080600190039150507f3031323334353637383961626364656600000000000000000000000000000000600a86061a8153600a858161166c5761166b612a56565b5b04945060008503611623575b819350505050919050565b600073ffffffffffffffffffffffffffffffffffffffff168273ffffffffffffffffffffffffffffffffffffffff16036116f2576040517f08c379a00000000000000000000000000000000000000000000000000000000081526004016116e990612ad1565b60405180910390fd5b6116fb81611386565b1561173b576040517f08c379a000000000000000000000000000000000000000000000000000000000815260040161173290612b3d565b60405180910390fd5b6117496000838360016113c7565b61175281611386565b15611792576040517f08c379a000000000000000000000000000000000000000000000000000000000815260040161178990612b3d565b60405180910390fd5b6001600360008473ffffffffffffffffffffffffffffffffffffffff1673ffffffffffffffffffffffffffffffffffffffff16815260200190815260200160002060008282540192505081905550816002600083815260200190815260200160002060006101000a81548173ffffffffffffffffffffffffffffffffffffffff021916908373ffffffffffffffffffffffffffffffffffffffff160217905550808273ffffffffffffffffffffffffffffffffffffffff16600073ffffffffffffffffffffffffffffffffffffffff167fddf252ad1be2c89b69c2b068fc378daa952ba7f163c4a11628f55a4df523b3ef60405160405180910390a461189c6000838360016113cd565b5050565b6000808273ffffffffffffffffffffffffffffffffffffffff163b119050919050565b600080600090507a184f03e93ff9f4daa797ed6e38ed64bf6a1f0100000000000000008310611921577a184f03e93ff9f4daa797ed6e38ed64bf6a1f010000000000000000838161191757611916612a56565b5b0492506040810190505b6d04ee2d6d415b85acef8100000000831061195e576d04ee2d6d415b85acef8100000000838161195457611953612a56565b5b0492506020810190505b662386f26fc10000831061198d57662386f26fc10000838161198357611982612a56565b5b0492506010810190505b6305f5e10083106119b6576305f5e10083816119ac576119ab612a56565b5b0492506008810190505b61271083106119db5761271083816119d1576119d0612a56565b5b0492506004810190505b606483106119fe57606483816119f4576119f3612a56565b5b0492506002810190505b600a8310611a0d576001810190505b80915050919050565b6000604051905090565b600080fd5b600080fd5b60007fffffffff0000000000000000000000000000000000000000000000000000000082169050919050565b611a5f81611a2a565b8114611a6a57600080fd5b50565b600081359050611a7c81611a56565b92915050565b600060208284031215611a9857611a97611a20565b5b6000611aa684828501611a6d565b91505092915050565b60008115159050919050565b611ac481611aaf565b82525050565b6000602082019050611adf6000830184611abb565b92915050565b600081519050919050565b600082825260208201905092915050565b60005b83811015611b1f578082015181840152602081019050611b04565b60008484015250505050565b6000601f19601f8301169050919050565b6000611b4782611ae5565b611b518185611af0565b9350611b61818560208601611b01565b611b6a81611b2b565b840191505092915050565b60006020820190508181036000830152611b8f8184611b3c565b905092915050565b6000819050919050565b611baa81611b97565b8114611bb557600080fd5b50565b600081359050611bc781611ba1565b92915050565b600060208284031215611be357611be2611a20565b5b6000611bf184828501611bb8565b91505092915050565b600073ffffffffffffffffffffffffffffffffffffffff82169050919050565b6000611c2582611bfa565b9050919050565b611c3581611c1a565b82525050565b6000602082019050611c506000830184611c2c565b92915050565b611c5f81611c1a565b8114611c6a57600080fd5b50565b600081359050611c7c81611c56565b92915050565b60008060408385031215611c9957611c98611a20565b5b6000611ca785828601611c6d565b9250506020611cb885828601611bb8565b9150509250929050565b600080600060608486031215611cdb57611cda611a20565b5b6000611ce986828701611c6d565b9350506020611cfa86828701611c6d565b9250506040611d0b86828701611bb8565b9150509250925092565b600080fd5b600080fd5b7f4e487b7100000000000000000000000000000000000000000000000000000000600052604160045260246000fd5b611d5782611b2b565b810181811067ffffffffffffffff82111715611d7657611d75611d1f565b5b80604052505050565b6000611d89611a16565b9050611d958282611d4e565b919050565b600067ffffffffffffffff821115611db557611db4611d1f565b5b611dbe82611b2b565b9050602081019050919050565b82818337600083830152505050565b6000611ded611de884611d9a565b611d7f565b905082815260208101848484011115611e0957611e08611d1a565b5b611e14848285611dcb565b509392505050565b600082601f830112611e3157611e30611d15565b5b8135611e41848260208601611dda565b91505092915050565b60008060408385031215611e6157611e60611a20565b5b6000611e6f85828601611c6d565b925050602083013567ffffffffffffffff811115611e9057611e8f611a25565b5b611e9c85828601611e1c565b9150509250929050565b611eaf81611b97565b82525050565b6000602082019050611eca6000830184611ea6565b92915050565b600060208284031215611ee657611ee5611a20565b5b6000611ef484828501611c6d565b91505092915050565b611f0681611aaf565b8114611f1157600080fd5b50565b600081359050611f2381611efd565b92915050565b60008060408385031215611f4057611f3f611a20565b5b6000611f4e85828601611c6d565b9250506020611f5f85828601611f14565b9150509250929050565b600067ffffffffffffffff821115611f8457611f83611d1f565b5b611f8d82611b2b565b9050602081019050919050565b6000611fad611fa884611f69565b611d7f565b905082815260208101848484011115611fc957611fc8611d1a565b5b611fd4848285611dcb565b509392505050565b600082601f830112611ff157611ff0611d15565b5b8135612001848260208601611f9a565b91505092915050565b6000806000806080858703121561202457612023611a20565b5b600061203287828801611c6d565b945050602061204387828801611c6d565b935050604061205487828801611bb8565b925050606085013567ffffffffffffffff81111561207557612074611a25565b5b61208187828801611fdc565b91505092959194509250565b600080604083850312156120a4576120a3611a20565b5b60006120b285828601611c6d565b92505060206120c385828601611c6d565b9150509250929050565b7f4e487b7100000000000000000000000000000000000000000000000000000000600052602260045260246000fd5b6000600282049050600182168061211457607f821691505b602082108103612127576121266120cd565b5b50919050565b7f4552433732313a20617070726f76616c20746f2063757272656e74206f776e6560008201527f7200000000000000000000000000000000000000000000000000000000000000602082015250565b6000612189602183611af0565b91506121948261212d565b604082019050919050565b600060208201905081810360008301526121b88161217c565b9050919050565b7f4552433732313a20617070726f76652063616c6c6572206973206e6f7420746f60008201527f6b656e206f776e6572206f7220617070726f76656420666f7220616c6c000000602082015250565b600061221b603d83611af0565b9150612226826121bf565b604082019050919050565b6000602082019050818103600083015261224a8161220e565b9050919050565b7f4552433732313a2063616c6c6572206973206e6f7420746f6b656e206f776e6560008201527f72206f7220617070726f76656400000000000000000000000000000000000000602082015250565b60006122ad602d83611af0565b91506122b882612251565b604082019050919050565b600060208201905081810360008301526122dc816122a0565b9050919050565b7f4552433732313a20696e76616c696420746f6b656e2049440000000000000000600082015250565b6000612319601883611af0565b9150612324826122e3565b602082019050919050565b600060208201905081810360008301526123488161230c565b9050919050565b7f4552433732313a2061646472657373207a65726f206973206e6f74206120766160008201527f6c6964206f776e65720000000000000000000000000000000000000000000000602082015250565b60006123ab602983611af0565b91506123b68261234f565b604082019050919050565b600060208201905081810360008301526123da8161239e565b9050919050565b600081905092915050565b60006123f782611ae5565b61240181856123e1565b9350612411818560208601611b01565b80840191505092915050565b600061242982856123ec565b915061243582846123ec565b91508190509392505050565b7f4552433732313a207472616e736665722066726f6d20696e636f72726563742060008201527f6f776e6572000000000000000000000000000000000000000000000000000000602082015250565b600061249d602583611af0565b91506124a882612441565b604082019050919050565b600060208201905081810360008301526124cc81612490565b9050919050565b7f4552433732313a207472616e7366657220746f20746865207a65726f2061646460008201527f7265737300000000000000000000000000000000000000000000000000000000602082015250565b600061252f602483611af0565b915061253a826124d3565b604082019050919050565b6000602082019050818103600083015261255e81612522565b9050919050565b7f45524337323155524953746f726167653a2055524920736574206f66206e6f6e60008201527f6578697374656e7420746f6b656e000000000000000000000000000000000000602082015250565b60006125c1602e83611af0565b91506125cc82612565565b604082019050919050565b600060208201905081810360008301526125f0816125b4565b9050919050565b60008190508160005260206000209050919050565b60006020601f8301049050919050565b600082821b905092915050565b6000600883026126597fffffffffffffffffffffffffffffffffffffffffffffffffffffffffffffffff8261261c565b612663868361261c565b95508019841693508086168417925050509392505050565b6000819050919050565b60006126a061269b61269684611b97565b61267b565b611b97565b9050919050565b6000819050919050565b6126ba83612685565b6126ce6126c6826126a7565b848454612629565b825550505050565b600090565b6126e36126d6565b6126ee8184846126b1565b505050565b5b81811015612712576127076000826126db565b6001810190506126f4565b5050565b601f82111561275757612728816125f7565b6127318461260c565b81016020851015612740578190505b61275461274c8561260c565b8301826126f3565b50505b505050565b600082821c905092915050565b600061277a6000198460080261275c565b1980831691505092915050565b60006127938383612769565b9150826002028217905092915050565b6127ac82611ae5565b67ffffffffffffffff8111156127c5576127c4611d1f565b5b6127cf82546120fc565b6127da828285612716565b600060209050601f83116001811461280d57600084156127fb578287015190505b6128058582612787565b86555061286d565b601f19841661281b866125f7565b60005b828110156128435784890151825560018201915060208501945060208101905061281e565b86831015612860578489015161285c601f891682612769565b8355505b6001600288020188555050505b505050505050565b7f4552433732313a20617070726f766520746f2063616c6c657200000000000000600082015250565b60006128ab601983611af0565b91506128b682612875565b602082019050919050565b600060208201905081810360008301526128da8161289e565b9050919050565b7f4552433732313a207472616e7366657220746f206e6f6e20455243373231526560008201527f63656976657220696d706c656d656e7465720000000000000000000000000000602082015250565b600061293d603283611af0565b9150612948826128e1565b604082019050919050565b6000602082019050818103600083015261296c81612930565b9050919050565b600081519050919050565b600082825260208201905092915050565b600061299a82612973565b6129a4818561297e565b93506129b4818560208601611b01565b6129bd81611b2b565b840191505092915050565b60006080820190506129dd6000830187611c2c565b6129ea6020830186611c2c565b6129f76040830185611ea6565b8181036060830152612a09818461298f565b905095945050505050565b600081519050612a2381611a56565b92915050565b600060208284031215612a3f57612a3e611a20565b5b6000612a4d84828501612a14565b91505092915050565b7f4e487b7100000000000000000000000000000000000000000000000000000000600052601260045260246000fd5b7f4552433732313a206d696e7420746f20746865207a65726f2061646472657373600082015250565b6000612abb602083611af0565b9150612ac682612a85565b602082019050919050565b60006020820190508181036000830152612aea81612aae565b9050919050565b7f4552433732313a20746f6b656e20616c7265616479206d696e74656400000000600082015250565b6000612b27601c83611af0565b9150612b3282612af1565b602082019050919050565b60006020820190508181036000830152612b5681612b1a565b905091905056fea264697066735822122054e3a75038c153bdb6d5eaddddb6f77afac07cd8bcbb656bba884242253459c764736f6c634300081c0033",
  "linkReferences": {},
  "deployedLinkReferences": {}
}